:100000000C9446000C9465000C9465000C946500FB
:100010000C9465000C9497000C94CD000C94650032
:100020000C9465000C9465000C9467000C946500BA
:100030000C9465000C9465000C9465000C946500AC
:100040000C94081C0C9465000C9465000C946500DD
:100050000C9465000C9465000C9465000C9465008C
:100060000C9465000C9465000C9465000C9465007C
:100070000C9465000C9465000C9465000C9465006C
:100080000C9465000C9465000C94650011241FBE4F
:10009000CFEFD0E1DEBFCDBF13E0A0E0B1E0E0ECF8
:1000A000FAE300E00BBF02C007900D92AE32B10739
:1000B000D9F719E0AEE2B3E001C01D92A334B10755
:1000C000E1F70E949C030C945E1D0C9400001F92AB
:1000D0000F920FB60F9211242F938F939F938091BD
:1000E0000401909105018F5F9F4F99F080912E033D
:1000F00090912F030197A9F080E188BB81E090E007
:1001000090932F0380932E03809104019091050119
:1001100084BD9F918F912F910F900FBE0F901F90D4
:10012000189518BA10922F0310922E03EDCF1F923C
:100130000F920FB60F9211248F939F9380913003EB
:1001400090913103892B31F481E090E09093310359
:10015000809330038091300390913103019739F0FF
:100160009F918F910F900FBE0F901F9018958091C7
:1001700000018823A9F39091000180910101981753
:1001800079F3809100018150809300019F918F91BC
:100190000F900FBE0F901F9018951F920F920FB6E1
:1001A0000F9211248F939F9380913003909131038C
:1001B000019739F09F918F910F900FBE0F901F9074
:1001C0001895809100018730A9F3909100018091EA
:1001D0000101981779F3809100018F5F80930001EE
:1001E0009F918F910F900FBE0F901F9018956F9257
:1001F0007F928F929F92AF92BF92CF92DF92EF92B7
:10020000FF920F931F93DF93CF930F92CDB7DEB77B
:1002100010923103109230034E010894811C911CFE
:1002200048E8A42E43E1B42E30E4732E00E911E037
:1002300066246A9480910201909103010A970CF060
:1002400095C0E0913403E33009F49DC0F0E0EE0F77
:10025000FF1FEA5DFE4F8081918197FDDDC0809197
:1002600043059091440560E070E0A4010E94E6100F
:1002700080913403282F30E0220F331F86E2C82EEE
:1002800081E0D82EC20ED31EF601E080F180C701B6
:1002900068EC70E00E94881CCB016AE070E00E946C
:1002A000881CFC01EA5FFE4F808185BB80911A01AA
:1002B00080936500C5010197F1F7C70160ED77E014
:1002C0000E94881CFB01EA5FFE4F808185BB809104
:1002D0001B0180936500C5010197F1F775BA809104
:1002E0001C0180936500C5010197F1F7E0910201BF
:1002F000F0910301EA5FFE4F808185BB80911D0173
:1003000080936500C5010197F1F7809130039091CA
:100310003103019709F479C0809130039091310342
:10032000019709F45FC06BBA9091000180910101BF
:10033000981749F431C00E942C1D68E070E00E94BB
:10034000881C809301019091000180910101981710
:1003500091F380914305909144050E94BE108091D5
:100360000201909103010A970CF46BCF809139033D
:1003700090913A0361E070E00E944316E0913403EB
:10038000E33009F063CF809135039091360361E04B
:1003900070E00E9487124ECF80910201909103017C
:1003A0008F5F9F4FA9F0ECE2F1E080819181909303
:1003B00005018093040124EC39E0C8010197F1F7AD
:1003C00021503040D1F7329621E0E233F20769F74D
:1003D0008091020190910301019690930301809313
:1003E0000201B1CF2A5D3E4FF9018081918164E61F
:1003F00070E00E94881C60FF19C0E0910001F0E0ED
:10040000E25EFE4F80818BBB8FCF0894E108F1083C
:10041000F601F182E08280CF80913703909138031A
:100420006FEF41E094010E943F1704CFA0910001BB
:10043000E0910101F0E0E25EFE4FB0E0A25EBE4F4F
:1004400080819C91892B8BBB6FCF9F92AF92BF9283
:10045000CF92DF92EF92FF920F931F93DF93CF9390
:100460000F92CDB7DEB780913703909138036FEFCD
:1004700042E820E030E05E010894A11CB11C850137
:100480000E94D61700E010E0FEE5DF2EE0E1EE2E40
:10049000E7E2FE2E77E7972E69E7C62E80914305A7
:1004A0009091440560E070E0A5010E94E6101BBA3F
:1004B000D5BA80911A0180936500C7010197F1F7C1
:1004C00095BA80911B0180936500C7010197F1F7F0
:1004D000C5BA80911C0180936500C7010197F1F7AF
:1004E000D5BA80911D0180936500C7010197F1F78E
:1004F0000537110594F40F5F1F4FC80169E070E0E4
:100500000E94881CFB01EE0FFF1FEA5BFE4F8081FB
:10051000918190930501809304018091430590910E
:1005200044050E94BE10BACF9F92AF92BF92CF9265
:10053000DF92EF92FF920F931F93DF93CF930F926F
:10054000CDB7DEB7809135039091360360E070E05F
:100550006E010894C11CD11CA6010E94D6128130E4
:1005600069F00F90CF91DF911F910F91FF90EF9065
:10057000DF90CF90BF90AF909F90089500E010E083
:1005800028E3B22E90E1E92E97E2F92E8EE3982E21
:10059000B1E7AB2E809143059091440560E070E097
:1005A000A6010E94E6101BBAB5BA80911A01809389
:1005B0006500C7010197F1F7B5BA80911B018093DF
:1005C0006500C7010197F1F795BA80911C018093EE
:1005D0006500C7010197F1F7A5BA80911D018093CD
:1005E0006500C7010197F1F784E00437180794F418
:1005F0000F5F1F4FC8016CE070E00E94881CFB0178
:10060000EE0FFF1FEE59FE4F8081918190930501FF
:100610008093040180914305909144050E94BE108F
:10062000B9CF5F926F927F928F929F92AF92BF925B
:10063000CF92DF92EF92FF920F931F93DF93CF93AE
:100640000F92CDB7DEB74E010894811C911CEEE5E8
:10065000AE2E00E117E27DE3B72E66246A94762C75
:1006600067E0562E8091390390913A0360E070E084
:10067000A4010E946B168130A9F7809143059091E7
:10068000440560E070E0A4010E94E6101BBAC0902F
:100690001A0140910601D0901B01E0901C01F090DE
:1006A0001D0120E030E0A5BAC0926500C8010197A5
:1006B000F1F745BBD0926500C8010197F1F745BB42
:1006C000E0926500C8010197F1F7B5BAF0926500B4
:1006D000C8010197F1F7283C310584F4C90164E1B0
:1006E00070E00E94881CFB01EE0FFF1FEE5CFE4FC6
:1006F0008081918190930501809304012F5F3F4F8A
:1007000081E02C32380779F6809134038F5F809333
:1007100034037092030160920201509200015092E2
:1007200001011092310310923003809143059091A2
:1007300044050E94BE1096CFDF93CF930F92CDB7A2
:10074000DEB70E946B1AF8948FEF8ABB84BB8FE0F0
:100750008093640080E187BB8FEC82B98AE08ABF16
:1007600080E389BF87E083BF83E085BD81E487BFE5
:1007700084E682BF789480E090E00E949B0690938C
:100780003A038093390384E090E00E944D0A9093ED
:100790004405809343058BE393E064E070E00E949E
:1007A0006109909336038093350380E0BE016F5F4B
:1007B0007F4F0E948805909338038093370381E12F
:1007C00093E060E070E042EC53E021E00E94B30F60
:1007D00084E992E060E070E042E454E022E00E94AC
:1007E000B30F85E292E060E070E042EC54E023E079
:1007F0000E94B30F87EF90E060E070E042E455E0C4
:1008000024E00E94B30F78940E94EB1980E090E0FE
:100810000F90CF91DF910895FA0180839293129205
:1008200012921292129212921292129212921292A8
:100830001292129212921292129212921292129298
:100840001292129212921292129212921292629337
:100850007293129212921292129212921292129217
:1008600080E882933197CF010895089508950895FF
:10087000089508950895089508950895809146056E
:10088000813009F00895809191068F3FD9F38F5FF1
:1008900080939106089580914605813009F008956E
:1008A000F894809145058F3F19F08F5F809345053F
:1008B000789408958CEF90E008950895FF920F9337
:1008C0001F93CF93DF93EC018B01F42E3981E32F3B
:1008D000F0E0E65DFD4F2081422F50E0FA01EE5D31
:1008E000FD4F7081DC01A40FB51F16969C911697E1
:1008F000E92FF0E0E65DFD4F8081E82FF0E0EE5D4E
:10090000FD4F6081220F220F220F280F862F809526
:10091000892316968C93882321F4872F809538237A
:100920003983E22FF0E0EE0FFF1FEB5DF64F0190F1
:10093000F081E02D128E118E138A128A158B048B92
:100940008F2D8095938D8923838F882359F48091EF
:100950008B06872B80938B06FA01E457F94F808131
:10096000682B6083822FDF91CF911F910F91FF90B1
:100970000895CF93DF93EC01A0919206B091930676
:1009800053969C938E9352975E968C915E97482FC8
:1009900050E05F963C915F97FA01E457F94F832F3F
:1009A00080959081892380838823A9F490962C9147
:1009B000922F909580918B06892380938B06FE0160
:1009C000E40FF51F8681832B86838981822B89839F
:1009D000DF91CF91089590962C91F1CFCF93DF9333
:1009E000EC01A0919206B09193065E968C915E9771
:1009F000FE01E80FF11D5F968C915F9780959681BF
:100A000089238683882339F490969C9190979095BA
:100A10008981892389835B961C925B9753961C92EC
:100A20001E925297DF91CF910895FC011182168298
:100A300017820895FC01D901009731F1808185303A
:100A400021F081E08C9380E0089547FD21C020E0F3
:100A50001C92F8944130F9F0413048F0423089F16D
:100A6000433021F1789487E98C9380E00895938155
:100A7000892F80958623861709F442C088E98C93D4
:100A80009381892F7894089586E98C9380E0089566
:100A90004F7721E0DDCF9381892F8095862311F157
:100AA000213019F5892B8383982F1FC093816923E7
:100AB00099F02130A1F4862F809589238383982F84
:100AC0000EC09381862F8923861791F088E98C9335
:100AD0009381892F7894089588E98C939381892F45
:100AE0007894089588E98C939381892F7894089558
:100AF000213079F7862F809589238383982FE9CF3A
:100B0000213009F0BECF892F862B8383982FB9CF50
:100B1000282FDB01809191068823D9F4F894E09185
:100B20002209F0912309309779F081819281909385
:100B300023098093220985E0808323831282118216
:100B400078941C92CF01089578948AE98C93CF0110
:100B500008958DE88C93E0E0F0E0F4CFFC01DB0138
:100B6000009761F08081853021F081E08C9380E0F6
:100B70000895F894838178941C92089586E98C9363
:100B800080E00895EF92FF920F931F93CF93DF932E
:100B90007C01FB01A0919206B09193065B968C912B
:100BA0005B9780625B968C935B975A961C930E932F
:100BB000599757967C936E93569740872187B583B4
:100BC000A483E70189819A819183808313821282B1
:100BD000F782E68289819A81009719F0EC017B8384
:100BE0006A83E701FA83E9835E96EC915E97F0E011
:100BF000E457F94F5F968C915F9780959081892398
:100C00008083882341F490969C91909580918B06E7
:100C1000892380938B06DF91CF911F910F91FF90D5
:100C2000EF9008952CE435E0F901CF01049610828D
:100C300092838183FC0185E0EC35F807B1F71282DD
:100C4000118230932309209322090895CF93DF93D3
:100C5000EC01EA81FB81A881B981309779F0B183F9
:100C6000A083109721F01396FC93EE931297EC81DA
:100C7000FD81178A168ADF91CF910895EE81FF8159
:100C8000B283A183109799F313961C921E92129728
:100C9000EC81FD81178A168ADF91CF9108951F9309
:100CA000CF93DF93EC01AC81BD815A961C921E92CA
:100CB000599758966C9358975B968C915B978F7D5C
:100CC0005B968C935B978823E1F480918B069096DA
:100CD0009C919097892B80938B065E96EC915E9702
:100CE000F0E0E457F94F80815F969C91892B8083D7
:100CF00011E0CE010E942606812FDF91CF911F9136
:100D0000089510E0CE010E942606812FDF91CF9139
:100D10001F910895FC01009721F420E030E0C90103
:100D2000089580818130C9F7F89424813581158236
:100D300014827894F4CF9C01809191068823D9F491
:100D4000F894E0918E06F0918F06309731F084810F
:100D5000958190938F0680938E067894309749F012
:100D600081E080831382128235832483118216826C
:100D70001782CF010895E0E0F0E0CF010895FC0173
:100D8000DB010097C9F08081813011F081E0089586
:100D9000F894818114968C931497868112968C9383
:100DA0001297878113968C931397848195818D93E5
:100DB0009C93789480E0089584E008952F923F9268
:100DC0004F925F926F927F928F929F92AF92BF925B
:100DD000CF92DF92EF92FF920F931F93CF93DF9307
:100DE0002C015A016B01380149011701009709F4E0
:100DF00092C0423051056105710508F480C002308F
:100E000011052105310508F480C0F89460913F0672
:100E1000709140066115710539F0FB018281938163
:100E20009093400680933F0678946115710509F40C
:100E300078C0E201A6019501215030404040504069
:100E400079F173018201060D171DF80180E090E031
:100E5000A0E0B0E0F983E883EF01EE0DFF1D0196FD
:100E6000A11DB11D82179307A407B50798F38EEF54
:100E70009FEFAFEFBFEFA80EB91ECA1EDB1EEA9CA4
:100E8000E001EB9CD00DFA9CD00D112482E090E0A3
:100E9000A0E0B0E0A80EB91ECA1EDB1EC00FD11F15
:100EA00019821882DB0111965C924E9213965C9225
:100EB0004E921297FB01A486B586C686D7861896F1
:100EC000AD92BD92CD92DC921B9764827582868230
:100ED0009782D1011C92CB01DF91CF911F910F918D
:100EE000FF90EF90DF90CF90BF90AF909F908F904A
:100EF0007F906F905F904F903F902F9008958FE676
:100F0000F701808360E070E0E6CF80E7D7018C9343
:100F100060E070E0E0CF86E7D7018C9360E070E09E
:100F2000DACF8EE6D1018C93D6CFCF93DF93FC013D
:100F3000EB01009729F1F89424853585468557857E
:100F40002115310541055105A9F0A281B3818D918B
:100F50009C911197938382832150304040405040B0
:100F6000248735874687578778941882CD01DF918B
:100F7000CF910895789481E78883A0E0B0E0F6CF20
:100F800084E78883A0E0B0E0F1CFCF93DF93FC014A
:100F9000EB01009769F16115710531F1F894248531
:100FA00035854685578580859185A285B385281727
:100FB00039074A075B0728F0789482E7DF91CF91E1
:100FC00008958281938199838883738362832F5FDD
:100FD0003F4F4F4F5F4F2487358746875787789419
:100FE00080E0DF91CF91089583E7DF91CF9108955D
:100FF00084E7E4CFCF93DF93EC01FB010097A9F1E5
:101000006115710571F1F8948881998191838083CC
:101010008A819B81938382838C819D81AE81BF81F4
:1010200084839583A683B78388859985AA85BB85A4
:1010300080879187A287B3872C853D854E855F8504
:1010400024873587468757877894821B930BA40B98
:10105000B50B808B918BA28BB38B80E0DF91CF910E
:10106000089585E7DF91CF91089584E7F7CF83E670
:1010700095E0FC01DF015096B383A28311821082B8
:101080001486158616861786108611861286138694
:10109000148215821682178225E0A33AB20711F056
:1010A000FD01E8CF138A128A1D921C92148E158EB0
:1010B000168E178E108E118E128E138E148A158A2C
:1010C000168A178A9093400680933F060895CF931F
:1010D000DF93DC01EB0180919106882359F410978E
:1010E00079F08C91843081F081E0888380E0DF9119
:1010F000CF91089582E0888380E0DF91CF910895B9
:1011000084E0888380E0F3CFF89412962D913C918F
:1011100013972F3F31F07894188280E0DF91CF91C0
:101120000895E0919206F0919306848D90E02070EE
:10113000822B932B13969C938E9312971596FC9368
:10114000EE9314977894188281E0D1CFCF93DF93F8
:10115000982FEB0180919106882309F042C09C30C2
:1011600008F044C0F894292F30E0D901AA0FBB1F22
:10117000AB5DB64F8D919C911197892B19F581E04C
:1011800090E011969C938E93E0918E06F0918F06DD
:10119000309709F18481958190938F0680938E0614
:1011A000789484E08083922F88278F6F9383828343
:1011B000158214821182168217821882CF01DF9164
:1011C000CF910895789488E28883E0E0F0E0CF0141
:1011D000DF91CF9108951D921C92789484E08883CA
:1011E000EDCF8DE88883E0E0F0E0E8CF8AE2888305
:1011F000E0E0F0E0E3CFFC01DB0180919106882381
:1012000009F5309731F18081843011F081E0089543
:10121000F8949281838115968C93159714969C93DC
:1012200014979F3F89F013961C9213978181129611
:101230008C93129786818C93878111968C937894E6
:1012400080E0089586E0089581E013968C931397CB
:10125000EDCF84E00895FC01009721F420E030E018
:10126000C901089580818230C9F7F894A481B581BD
:101270001C968D919C911D970097F9F01896ED9111
:10128000FC911997219131911996FC93EE9318973F
:1012900001971D969C938E931C9714968D919C910B
:1012A0001597E817F90759F412968D919C911397A9
:1012B00019969C938E93189702C020E030E07894A2
:1012C000CFCF9C0180919106882309F052C0F894F9
:1012D000E0918E06F0918F06309731F084819581F0
:1012E00090938F0680938E0678943097A9F1F894A6
:1012F000A0918906B0918A06109781F18D919C91F9
:10130000119790938A0680938906789413963C935C
:101310002E931297CB01880F991F820F931F15965A
:101320009C938E93149717963C932E931697199629
:101330003C932E9318971B967C936E931A971D9649
:101340001C921E921C9782E0808313821282B583C6
:10135000A483118216821782CF01089580918E0690
:1013600090918F0695838483F0938F06E0938E0689
:101370007894E0E0F0E0CF010895FC010097A1F03F
:101380008081823011F081E00895F8940480F58125
:10139000E02D82819381978386839187808715864C
:1013A0001486789480E0089584E00895CF93DF93C5
:1013B000FC01DB010097A9F18081823021F081E0FE
:1013C000DF91CF910895F894818118968C931897A6
:1013D000868116968C931697878117968C9317970C
:1013E000C481D5812C853D852115310591F4119657
:1013F0001C921E9213963C932E9312978A859B857E
:1014000015969C938E931497789480E0DF91CF91FA
:101410000895E885F9858081918111969C938E933A
:10142000E9CF84E0DF91CF9108958FE496E0909327
:101430004206809341060E969093500680934F0685
:101440000E9690935E0680935D060E9690936C06C2
:1014500080936B06C89710927A0610927906909343
:101460008A06809389060895FC01009719F080810F
:10147000833021F020E030E0C9010895F894228102
:1014800033812115310531F02150304033832283DF
:101490002F5F3F4F7894C90108959C018091910678
:1014A0008823D9F4F894E0918E06F0918F06309756
:1014B00031F08481958190938F0680938E06789485
:1014C000309749F083E0808333832283158214822E
:1014D000118216821782CF010895E0E0F0E0CF017B
:1014E0000895FC01DB010097C9F08081833011F081
:1014F00081E00895F894818114968C9314978681E5
:1015000012968C931297878113968C9313978281EE
:1015100093818D939C93789480E0089584E008955E
:10152000E82F8C30B9F08C50833F90F0EF3FA1F062
:10153000F894F0E0EE0FFF1FEB5DF64F0190F081A5
:10154000E02D309789F08EE381A380E078940895B0
:101550008AE208958DE30895F894E0919206F0915F
:10156000930681A1789408958BE0F0CFEF92FF92DB
:101570000F931F93CF93DF93E82FEB018D50823FA2
:1015800008F1188219821A821B821C821D821E8217
:101590001F82F894EF3FF1F0F0E0EE0FFF1FEB5DDC
:1015A000F64F0190F081E02D3097D1F0828580FDDB
:1015B00020C0789482E8DF91CF911F910F91FF9026
:1015C000EF9008958AE2DF91CF911F910F91FF90E4
:1015D000EF900895E0919206F0919306E48DDCCFB0
:1015E00078948BE0DF91CF911F910F91FF90EF9056
:1015F0000895E680F78000851185A481B5817894EF
:101600008C91882311F520E030E040E050E02F5F1E
:101610003F4F4F4F5F4FFD01E20FF31F8081882343
:10162000B1F3288339834A835B83E21AF30A040BFC
:10163000150BEC82FD820E831F8380E0DF91CF913A
:101640001F910F91FF90EF90089520E030E040E06F
:1016500050E0E7CFF89420919406309195064091A0
:101660009606509197067894B901CA010895F894A6
:1016700060939406709395068093960690939706D0
:1016800078940895E82F8D50823FC0F0F894EF3F92
:10169000B9F0F0E0EE0FFF1FEB5DF64F0190F08127
:1016A000E02D309741F0DB0182E201900D928150F4
:1016B000E1F778940895789489E208958AE208958C
:1016C000E0919206F0919306E48DE3CF9F92AF9262
:1016D000BF92CF92DF92EF92FF920F931F93CF931F
:1016E000DF93982EF894C0913B06D0913C0620974A
:1016F00009F46DC08E859F8590933C0680933B06D0
:101700007894798368839C8E1B8E1A8E198EDB8267
:10171000CA82EE82FF82088719875D834C83BB866D
:10172000AA863D872C8719A2E92DE695E695E695D0
:10173000EE8FF0E0EE5DFD4F808188A3E92DE7702C
:10174000ED8FF0E0EE5DFD4F80818F8F1B8A1A8A4E
:101750001F8A1E8A1D8A1C8ACE010E943D04CE016A
:101760000E943504F894E92DF0E0EE0FFF1FEB5DC9
:10177000F64FD183C083E0916105F0916205FF8748
:10178000EE87198A188A309711F0D18BC08BD093CD
:101790006205C093610580918B0698A1892B809387
:1017A0008B06EE8DF0E0E457F94F80819F8D892BF9
:1017B0008083789480E0DF91CF911F910F91FF900B
:1017C000EF90DF90CF90BF90AF909F900895789466
:1017D00086E4F1CFF8948091470590914805A09157
:1017E0004905B0914A050196A11DB11D8093470599
:1017F00090934805A0934905B0934A0578940E94B8
:101800003C04E8CFF89480919106882309F03FC00A
:10181000809145058823D9F5E0918B06F0E0E65DDF
:10182000FD4F8081E82FF0E0E457F94FE081F0E0D0
:10183000E65DFD4F982F990F990F990F8081980FB2
:1018400090934B0580916005981709F1E92FF0E01E
:10185000EE0FFF1FEB5DF64F80819181909388061C
:10186000809387068091330690913406A0913506C7
:10187000B09136060196A11DB11D80933306909359
:101880003406A0933506B09336060E946E1B7894FA
:1018900008958C30A0F4F894E82FF0E0EE0FFF1FCD
:1018A000EB5DF64FA081B181109759F059968D915B
:1018B0009C915A97892B41F4789480E508958AE2A7
:1018C000089578948BE008955A961C921E92599729
:1018D0005B968C915B9783FF03C0789480E00895BA
:1018E00080918B0690969C919097892B80938B0684
:1018F0005E96EC915E97F0E0E457F94F80815F9639
:101900009C91892B808378940E94020C80E008953A
:101910009C01009721F1F894A0919206B091930652
:101920005E96EC915E97F0E0E457F94F5F968C91EC
:101930005F978095908189238083882349F49096CE
:101940009C919097909580918B06892380938B062C
:101950005A963C932E93599778940E94020C0895BE
:101960008F929F92AF92BF92CF92DF92EF92FF92AF
:101970000F931F93CF93DF93882E162F942E8823D7
:10198000C9F01C3300F58BE3891590F093E0283EF5
:101990003907D8F083E5DF91CF911F910F91FF9028
:1019A000EF90DF90CF90BF90AF909F908F90089571
:1019B00082E5F1CF662329F7442329F72115310564
:1019C00029F784E5E8CF81E5E6CFB90180E090E032
:1019D00024E630E040E050E00E94691C6C507E4FED
:1019E0008F4F9F4F28EE33E040E050E00E949B1C59
:1019F00059016A01612F70E080E090E02CE330E053
:101A000040E050E00E94691C7B018C01E90CF11C54
:101A1000011D111D682D70E080E090E020E13EE0A6
:101A200040E050E00E94691CE60EF71E081F191FD7
:101A3000C801B70124E630E040E050E00E94691C94
:101A4000A60EB71EC81ED91E760100271127E70172
:101A50008FEF9FEFA0E0B0E0A822B922CA22DB22DC
:101A6000C5010E94880CEF2851F080E090E80E94A8
:101A7000880C80E090E80E94880C2197B1F780E004
:101A80008ACFDF92EF92FF920F931F9380912409E8
:101A9000882341F488EC90E00E94880C809124090E
:101AA0008823C1F36091370670913806809139061A
:101AB00090913A0624E630E040E050E00E949B1C02
:101AC000C901DA017C018D0134E6D32E10C0A801D2
:101AD00097010E949B1C8D2D821B87FD44C0809323
:101AE0003D060E94380484E690E00E94880CF89439
:101AF0008091470590914805A0914905B0914A050C
:101B000080933F0990934009A0934109B093420903
:101B100060914705709148058091490590914A056B
:101B200010924705109248051092490510924A05F7
:101B30007894E114F1040105110549F610923D066F
:101B400060913706709138068091390690913A0677
:101B500024E630E040E050E00E949B1CC901DA011D
:101B60007C018D01BECF10923D06BBCF82E090E09C
:101B70000E94880CF8941092470510924805109224
:101B8000490510924A05789484E690E00E94880CFA
:101B9000F8948091470590914805A0914905B0912E
:101BA0004A058093370690933806A0933906B09380
:101BB0003A0681E08093240978940895982F8C3018
:101BC00009F43FC08C50833F80F1F8949F3FD9F1D6
:101BD000E0919206F0919306E48DE91709F43DC077
:101BE000E92F20E0F0E0EE0FFF1FEB5DF64FA08144
:101BF000B181109779F15E96EC915E97F0E0E45731
:101C0000F94F5F968C915F978095908189238083AF
:101C1000882369F05B968C915B9788605B968C93C8
:101C200078942130E1F080E008958AE2089590965A
:101C30009C919097909580918B06892380938B0639
:101C4000E9CF8BE50895E0919206F0919306E48D3B
:101C500021E0C8CF78948AE5089521E0C3CF0E949F
:101C6000020C80E008958C3098F4F894E82FF0E0AE
:101C7000EE0FFF1FEB5DF64FA081B181109751F081
:101C80005B968C915B9783FD08C0789485E60895F8
:101C90008AE20895789484E60895877F5B968C9312
:101CA0005B97882331F459968D919C915A97892B93
:101CB00019F0789480E0089580918B0690969C911D
:101CC0009097892B80938B065E96EC915E97F0E05F
:101CD000E457F94F80815F969C91892B808378949B
:101CE0000E94020C80E008950F931F93CF93DF931F
:101CF000E82F80919106882309F08BC0EC3009F41D
:101D00008EC08E2F8C50833F08F47DC0F894EF3F37
:101D100009F48BC00E2F10E0000F111FF801EB5DCE
:101D2000F64FC081D181209709F485C08E8D482F50
:101D300050E02F8D2095FA01E457F94F80818223DE
:101D40008083882339F498A1909580918B0689230C
:101D500080938B06AA89BB89109781F0FD01E40F5F
:101D6000F51F868182238683882341F498A190956C
:101D700011968C911197892311968C938E899F8946
:101D8000009711F00E9426061A8E198E1B8E8091E4
:101D900045058F3F19F08F5F809345057894F8943F
:101DA000882319F0815080934505CE010E943604A6
:101DB00080913E06815080933E060B5D164FF801E0
:101DC00011821082A889B9891097C1F18E859F85EB
:101DD0001F969C938E931E97EE85FF85B18BA08BEB
:101DE00080913B0690913C069F878E87D0933C065E
:101DF000C0933B0678940E94020C80E0DF91CF9163
:101E00001F910F9108958AE2DF91CF911F910F9159
:101E100008958FE3DF91CF911F910F9108958DE386
:101E2000DF91CF911F910F910895E0919206F0916B
:101E30009306E48D6FCF78948CE3E6CFEE85FF8533
:101E4000118A108AF0936205E0936105C9CF2F9241
:101E50003F924F925F926F927F928F929F92AF923A
:101E6000BF92CF92DF92EF92FF920F931F93DF9377
:101E7000CF9300D000D00F92CDB7DEB72C011B015D
:101E80005A834983722E6A2CBB82CC82DD82640124
:101E9000AA8CBB8C8CE0821738F1F894822E99249E
:101EA000880C991CF401EB5DF64F80819181892BA0
:101EB000E9F0789418E2812F0F900F900F900F9017
:101EC0000F90CF91DF911F910F91FF90EF90DF90D6
:101ED000CF90BF90AF909F908F907F906F905F90CA
:101EE0004F903F902F9008951AE2E5CF81E090E067
:101EF000918380837894A0FC02C0A1FE07C0C70133
:101F000060E070E0462D5B810E943C1DC201B10182
:101F100049815A8195010E940C04BC01872DA701BB
:101F20009801E62CFB800C811D810E94660B182F06
:101F3000882379F4F89480913E068F5F80933E0663
:101F4000789480914605813009F0B5CF0E94020C4B
:101F5000B2CFF894E5E2F9E08E0E9F1EF4011182F3
:101F600010827894A8CFAF92BF92CF92DF92EF9277
:101F7000FF920F931F93CF93DF93FC01122F2D300D
:101F8000C8F4F894C22FD0E0CC0FDD1FCB5DD64F44
:101F900088819981892B81F0789418E2812FDF91D3
:101FA000CF911F910F91FF90EF90DF90CF90BF9056
:101FB000AF9008951AE2F2CF81E090E09983888390
:101FC0007894CF0120E030E00E940C04BC01812F06
:101FD00040E050E020E030E0EE24FF248701CC24F4
:101FE000DD24AA24BB240E94660B182F882371F4D9
:101FF000F89480913E068F5F80933E06789480919E
:102000004605813059F60E94020CC8CFF894198217
:1020100018827894C3CFDF92EF92FF920F931F93B1
:10202000CF93DF93282F8C50833FC0F06C30B0F4F7
:10203000F894A62FB0E0AA0FBB1FFD01EB5DF64F91
:1020400080819181892B99F0789488E2DF91CF91FA
:102050001F910F91FF90EF90DF9008958AE2DF913A
:10206000CF911F910F91FF90EF90DF90089581E045
:1020700090E0918380837894D62ED694D694D6948B
:102080000D2D10E0F801EE5DFD4FF08097E0E92E98
:10209000E622EE2DF0E0EE5DFD4F7081F8942F3FCB
:1020A00009F452C0E22FF0E0EE0FFF1FEB5DF64F98
:1020B000C081D181209709F44DC0118210828E8D8C
:1020C000482F50E0FA01E457F94F20819F8D822F6D
:1020D000892301F1892F809582238083882309F445
:1020E00040C090918B069F2990938B06F801E4578E
:1020F000F94F8081872B8083AB5DB64FCD93DC9306
:102100006C8FDE8EED8EF8A27F8F78940E94020C89
:1021100080E0A5CF2A893B892115310569F3F901B2
:10212000E40FF51F892F8095968189238683882364
:10213000F1F0F90191819F29F9019183E00FF11FDD
:102140008681872B8683D8CFE0919206F091930603
:10215000248DA8CFAB5DB64F1D921C92789489E276
:102160007ECF88A1809590918B069823BCCF88A1C3
:102170008095F901918198239183DDCFFC0100972F
:10218000C1F08081833011F081E00895F89481815D
:10219000882389F4828193812FEF8F3F920731F05A
:1021A000019693838283789480E00895789482E303
:1021B000089584E00895CF0160E070E041E00E945E
:1021C0005E0478940E94020C80E008950F931F93A0
:1021D000CF93DF93EC018A0180919106882369F403
:1021E000209799F088818330A1F081E0FA01808303
:1021F000DF91CF911F910F91089582E0FA018083C2
:10220000DF91CF911F910F91089584E0FA018083AF
:10221000EFCFF8948A819B81009759F001979B83B7
:102220008A837894FA011082DF91CF911F910F91E8
:102230000895E0919206F0919306838D8160838FDB
:10224000728F618FCE010E94B90478940E94020CB3
:10225000F894E0919206F0919306838D80FD06C07C
:10226000138A128A7894F8011082C2CFCE010E949C
:10227000EE0478948AE0F8018083BACFFF920F933E
:102280001F93CF93DF93EC018A01809191068823FD
:1022900079F42097B9F088818330C1F081E0FA01A8
:1022A0008083CE01DF91CF911F910F91FF90089510
:1022B0008CE8FA018083CE01DF91CF911F910F91BD
:1022C000FF90089584E0FA018083EBCFF894F980C1
:1022D000FF2011F0FF24F394662339F4FF2071F1FD
:1022E000789488E0F8018083DCCF613029F078941D
:1022F00087E0F8018083D5CFFF2049F0CE0160E070
:1023000070E041E00E945E0489818823B9F7188259
:1023100080918E0690918F069D838C83D0938F063B
:10232000C0938E067894F1E0FF1629F0F801108230
:10233000C0E0D0E0B6CF0E94020CF8CF18828091A6
:102340008E0690918F069D838C83D0938F06C093C9
:102350008E067894F8011082C0E0D0E0A2CF0F93EF
:102360001F93CF93DF93EC018B010097C9F16115A7
:10237000710581F18881823031F081E0DF91CF9168
:102380001F910F910895F8948981882399F040FF57
:1023900046C0CE01B80144E00E945E0489818823D2
:1023A000C1F778940E94020C80E0DF91CF911F91D9
:1023B0000F910895AC81BD811C962D913C911D9784
:1023C0001A968D919C911B972817390758F078948D
:1023D0008EE1D4CF83E0DF91CF911F910F910895CB
:1023E00084E0CCCF41FF20C01896ED91FC91199765
:1023F00012968D919C911397E817F90779F132970E
:102400001996FC93EE931897118300832F5F3F4F2B
:102410001D963C932E931C97789480E0AFCFCE010D
:1024200044E00E945E04BDCF1696ED91FC91179793
:10243000619371931796FC93EE93169714968D9172
:102440009C911597E817F90709F712968D919C91C1
:10245000139717969C938E931697D8CF1496ED9159
:10246000FC9115971996FC93EE931897C8CFFC0131
:10247000009739F16115710511F18081823011F0F9
:1024800081E00895F8948181882381F4A481B58145
:102490001C962D913C911D971A968D919C911B979E
:1024A0002817390780F078948EE10895CF0144E031
:1024B0000E945E0478940E94020C80E0089583E0FC
:1024C000089584E008951896ED91FC91199712965D
:1024D0008D919C911397E817F90781F0329719961F
:1024E000FC93EE931897718360832F5F3F4F1D9687
:1024F0003C932E931C97789480E008951496ED9168
:10250000FC9115971996FC93EE931897E7CFFC0171
:10251000009739F16115710511F18081823011F058
:1025200081E00895F8948181882381F4A481B581A4
:102530001C962D913C911D971A968D919C911B97FD
:102540002817390780F078948EE10895CF0144E090
:102550000E945E0478940E94020C80E0089583E05B
:10256000089584E008951696ED91FC911797619374
:1025700071931796FC93EE9316972F5F3F4F1D961E
:102580003C932E931C9714968D919C911597E81768
:10259000F90719F0789480E0089512968D919C9136
:1025A000139717969C938E931697F4CFEF92FF9202
:1025B0000F931F93CF93DF938C017A018091910643
:1025C000882309F06BC00115110509F46DC0F801ED
:1025D0008081823009F05CC0F894F801A481B58153
:1025E0001C968D919C911D97009709F11896ED917D
:1025F000FC911997C191D1911996FC93EE9318977C
:1026000001971D969C938E931C9714968D919C9187
:102610001597E817F90799F17894F7011082CE0120
:10262000DF91CF911F910F91FF90EF900895E0916E
:102630009206F0919306838D8460838F728F618FF1
:10264000C8010E94B90478940E94020CF894E091A9
:102650009206F0919306C489D589209759F1158A7D
:10266000148A138E138A128A7894F7011082CE018D
:10267000DF91CF911F910F91FF90EF9008951296E7
:102680008D919C91139719969C938E931897C4CF14
:1026900081E0FA018083C0E0D0E0C1CF82E0FA019E
:1026A0008083C0E0D0E0BBCF84E0FA018083C0E04B
:1026B000D0E0B5CFC8010E94EE0478948AE0F7011B
:1026C0008083ADCFFF920F931F93CF93DF93EC01E5
:1026D0008A0180919106882309F05EC0209739F124
:1026E0008881823051F081E0FA018083CE01DF9150
:1026F000CF911F910F91FF900895F894F980FF20DA
:1027000089F4662341F4FF2009F44FC0789488E0EF
:10271000F8018083EBCF6130A1F0789487E0F80175
:102720008083E4CFFF24F394662369F3F4CF84E03D
:10273000FA018083CE01DF91CF911F910F91FF901D
:102740000895FF2049F0CE0160E070E044E00E946F
:102750005E0489818823B9F7EC81FD818091890627
:1027600090918A0691838083F0938A06E09389068C
:10277000188280918E0690918F069D838C83D093D2
:102780008F06C0938E067894F1E0FF1659F0F80199
:102790001082C0E0D0E0AACF8CE8FA018083C0E0CC
:1027A000D0E0A4CF0E94020CF2CFEC81FD81809199
:1027B000890690918A0691838083F0938A06E0933C
:1027C0008906188280918E0690918F069D838C8356
:1027D000D0938F06C0938E067894F8011082C0E0E3
:1027E000D0E084CFCF93DF93EC01809191068823D2
:1027F000E9F42097F9F08881843021F081E0DF91BD
:10280000CF910895F8943A814B81A0919206B091AE
:1028100093065C968C915C97841771F0381709F4D5
:1028200056C0789488E7DF91CF91089585E0DF91D5
:10283000CF91089584E0E3CF5E96EC915E97F0E04F
:10284000E457F94F5F968C915F978095908189232B
:102850008083882349F490969C91909790958091DD
:102860008B06892380938B065C963C935C97E32FC1
:10287000E695E695E6955E96EC935E97F0E0EE5D64
:10288000FD4F208190962C939097E32FE7705D96F3
:10289000EC935D97F0E0EE5DFD4F90815F969C9329
:1028A0005F9780918B06822B80938B065E96EC91CE
:1028B0005E97F0E0E457F94F8081982B9083E32FE7
:1028C000F0E0EE0FFF1FEB5DF64FB183A083E42F26
:1028D000F0E0EE0FFF1FEB5DF64F81E090E091839B
:1028E00080838981882351F48A819B818F6F9B83A8
:1028F0008A831D821C82789480E081CFCE0160E0C3
:1029000070E040E10E945E04E82FF0E08A819B8144
:1029100080708E2B9F2B9B838A83EE0FFF1FEB5DB6
:10292000F64F808191819D838C8378940E94020C64
:1029300080E065CF0F931F93CF93DF93EC018A0163
:1029400080919106882369F4209799F088818430DA
:10295000A1F081E0FA018083DF91CF911F910F9167
:10296000089582E0FA018083DF91CF911F910F914A
:10297000089584E0FA018083EFCFF8942A813B81A7
:102980002F3F09F47FC0432FAC81BD815C968C91B1
:102990005C97831709F459C0E0919206F091930671
:1029A000848D821708F055C05E968C915E97E82F53
:1029B000F0E0E457F94F50815F969C915F97852F27
:1029C000892309F478C0892F809585238083882303
:1029D00049F490969C919097909580918B068923CD
:1029E00080938B065C964C935C97E42FE695E69576
:1029F000E6955E96EC935E97F0E0EE5DFD4F2081EC
:102A000090962C939097E42FE7705D96EC935D97EA
:102A1000F0E0EE5DFD4F90815F969C935F97809113
:102A20008B06822B80938B065E96EC915E97F0E08E
:102A3000E457F94F8081982B9083E42FF0E0EE0F5C
:102A4000FF1FEB5DF64FB183A083E0919206F091FA
:102A50009306838D8061838F728F618FCE010E9478
:102A6000B90478940E94020CF894E0919206F091D7
:102A70009306838D84FD17C0138A128A7894F80117
:102A800010826ACFE0919206F0919306848D90E0D7
:102A90002070822B932B9B838A83FD83EC83789415
:102AA000FA01108259CFCE010E94EE0478948AE098
:102AB000F801808351CF5C963C935C97E32FE695B9
:102AC000E695E6955E96EC935E97F0E0EE5DFD4F41
:102AD000808190968C939097E32FE7705D96EC93AE
:102AE0005D97F0E0EE5DFD4F80815F968C935F9780
:102AF000A4CFFF920F931F93CF93DF93EC018A0132
:102B000080919106882381F4209709F457C0888129
:102B10008430A1F081E0FA018083CE01DF91CF9172
:102B20001F910F91FF9008958CE8FA018083CE01E8
:102B3000DF91CF911F910F91FF900895F894F98044
:102B4000FF2011F0FF24F394662339F4FF20D1F124
:102B5000789488E0F8018083E0CF613029F07894A0
:102B600087E0F8018083D9CFFF2049F0CE0160E0F3
:102B700070E040E10E945E0489818823B9F7EB810F
:102B8000F0E0EE0FFF1FEB5DF64F1182108218820E
:102B900080918E0690918F069D838C83D0938F06B3
:102BA000C0938E067894F1E0FF1629F0F8011082A8
:102BB000C0E0D0E0B2CF0E94020CF8CF84E0FA016E
:102BC0008083ABCFEB81F0E0EE0FFF1FEB5DF64FA4
:102BD00011821082188280918E0690918F069D83BB
:102BE0008C83D0938F06C0938E067894F801108260
:102BF000C0E0D0E092CF0F931F93CF93DF93EC010F
:102C00008B010097A1F16115710559F1888181301F
:102C100031F081E0DF91CF911F910F910895F894E9
:102C20008981882399F040FF24C0CE01B80142E099
:102C30000E945E0489818823C1F778940E94020C67
:102C400080E0DF91CF911F910F9108958C819D813C
:102C5000892BA1F0789484E1DF91CF911F910F919E
:102C6000089583E0DF91CF911F910F91089584E043
:102C7000D1CFCE0142E00E945E04DFCF7D836C8322
:102C8000789480E0C7CFFC010097F1F061157105E1
:102C9000C9F08081813011F081E00895F89481813C
:102CA000882339F484819581892B81F0789484E19B
:102CB0000895CF0142E00E945E0478940E94020CC5
:102CC00080E0089583E0089584E008957583648327
:102CD000789480E00895EF92FF920F931F93CF9323
:102CE000DF938C017A0180919106882309F042C01C
:102CF0000115110509F444C0F8018081813099F46F
:102D0000F894F801C481D581209799F01582148236
:102D10007894FA011082CE01DF91CF911F910F912B
:102D2000FF90EF90089581E0FA018083C0E0D0E049
:102D3000F2CFE0919206F0919306838D8260838FAB
:102D4000728F618FC8010E94B90478940E94020CAE
:102D5000F894E0919206F0919306C489D589209762
:102D6000A9F0158A148A138E138A128A7894F701AF
:102D70001082D1CF82E0FA018083C0E0D0E0CBCFD7
:102D800084E0FA018083C0E0D0E0C5CFC8010E9492
:102D9000EE0478948AE0F7018083BDCFFF920F9311
:102DA0001F93CF93DF93EC018A01809191068823D2
:102DB00079F42097B9F088818130C1F081E0FA017F
:102DC0008083CE01DF91CF911F910F91FF900895E5
:102DD0008CE8FA018083CE01DF91CF911F910F9192
:102DE000FF90089584E0FA018083EBCFF894F98096
:102DF000FF2011F0FF24F394662339F4FF2071F1D2
:102E0000789488E0F8018083DCCF613029F07894F1
:102E100087E0F8018083D5CFFF2049F0CE0160E044
:102E200070E042E00E945E0489818823B9F718822D
:102E300080918E0690918F069D838C83D0938F0610
:102E4000C0938E067894F1E0FF1629F0F801108205
:102E5000C0E0D0E0B6CF0E94020CF8CF188280917B
:102E60008E0690918F069D838C83D0938F06C0939E
:102E70008E067894F8011082C0E0D0E0A2CFCF9205
:102E8000DF92EF92FF920F931F93DF93CF930F92F6
:102E9000CDB7DEB78C017901009709F478C0FC0149
:102EA0008081853071F081E0F901808380E00F90AE
:102EB000CF91DF911F910F91FF90EF90DF90CF9016
:102EC0000895F894442309F048C06095F80183817F
:102ED00086238383F801C180D280C114D10409F410
:102EE00063C0198210C0F6016085F8018381809566
:102EF00086236817C1F0F601808191819C016901E8
:102F000021153105F9F0F6018185813071F18130AB
:102F100050F3823099F1833071F7F6016085F80142
:102F20008381682341F3C6010E944F06813019F75F
:102F3000F1E0F983F601808191819C0169012115FD
:102F4000310509F77894F981F13059F1F894F801D5
:102F500083817894F7011082AACF4130E9F0789408
:102F600089E9F901808380E0A2CFF801638160954F
:102F7000F6018085682309F4BECFD5CFF6016085C0
:102F8000F80183818623681709F0B5CFCCCF86E995
:102F9000F901808380E08BCFF8018381862B8383C6
:102FA00099CF0E94020CD2CF1982CCCF8F929F92E0
:102FB000BF92CF92DF92EF92FF920F931F93DF9316
:102FC000CF93CDB7DEB72B970FB6F894DEBF0FBE09
:102FD000CDBF7C01562FB42EF90168018091910676
:102FE0008823E9F4E114F104F9F0D7018C918530DC
:102FF00001F181E0F801808380E02B960FB6F89410
:10300000DEBF0FBECDBFCF91DF911F910F91FF901B
:10301000EF90DF90CF90BF909F908F90089582E0C7
:10302000D8018C9380E0E9CF86E9F801808380E0C5
:10303000E4CF47FD62C01B86F894A1E0BA1609F4FC
:1030400061C0BA1650F5D70113964C91842F809524
:103050008523851709F444C0C7014E010894811CDB
:10306000911CB401452F20E08F010E94C205789485
:103070000E94020CF894E0919206F0919306838DE1
:1030800085FD69C0BB85B13009F480C0F70143817B
:10309000842F7894F6011082B0CFB2E0BB1651F0C5
:1030A00083E0B81609F443C0789487E9F601808379
:1030B00080E0A3CFD70113964C91852F84238517E9
:1030C00009F057C0BB85B13031F4852F809584233A
:1030D000F7018383482F842F7894D6011C928DCFDB
:1030E000BB85B13029F4842F852BF7018383482FCA
:1030F000842F7894D6011C9280CF8FE7B82291E07C
:103100009B879ACFD70113964C91642F60956523C6
:1031100009F448C0BB85B13029F4862F842BF70110
:103120008383482F842F7894D6011C9266CFD701D1
:1031300013964C91852F842309F441C0BB85B1308F
:1031400029F480958423F7018383482F842F789472
:10315000D6011C9252CFC4010E942606E09192062D
:10316000F0919306138E78948AE0D6018C9380E0D8
:1031700044CFC7014E010894811C911CB401452F16
:1031800022E08F010E94C205789472CF81E08B15F6
:1031900018F1D70113964C911397808D482B1396F5
:1031A0004C9376CFC7014E010894811C911CB40149
:1031B000452F21E08F010E94C205789459CFC701A5
:1031C0004E010894811C911CB401452F23E08F010E
:1031D0000E94C20578944CCF93E09B1520F4D70150
:1031E00013964C9155CF808D8095F70143814823EC
:1031F00043834ECFDF92EF92FF920F931F93CF93B3
:10320000DF938C017A0180919106882399F401154E
:103210001105A1F0F80180818530A1F081E0FA016B
:103220008083C801DF91CF911F910F91FF90EF90A4
:10323000DF9008958CE8FA018083F3CF86E9FA01E4
:103240008083EFCFF894F80121813281DD242115AC
:10325000310511F0DD24D394662339F4DD2079F1B2
:10326000789488E0F7018083DCCF613061F0789456
:1032700087E0F7018083D5CFCE0160E00E944F0642
:10328000888199819C01E90121153105A9F7F8018F
:103290001082809122099091230992838183109357
:1032A0002309009322097894F1E0DF1629F0F70151
:1032B000108200E010E0B5CF0E94020CF8CFF801B8
:1032C0001082809122099091230992838183109327
:1032D0002309009322097894F701108200E010E09E
:1032E000A0CF80914605813009F00895F89480912F
:1032F0004505882359F0815080934505882321F4A2
:1033000080919106882321F0789408957894089507
:1033100078940E94020C08950E943904F8948091D8
:10332000940690919506A0919606B0919706019605
:10333000A11DB11D8093940690939506A0939606C7
:10334000B0939706789480914605813009F00895EE
:10335000A0916105B09162055C968C915C978C3070
:10336000B1F320918B0641E050E01AC090968C9109
:103370009097282B5E96EC915E97F0E0E457F94F1A
:1033800080815F969C915F97892B80831E960D901C
:10339000BC91A02D78945C968C915C978C30C1F098
:1033A000F89459968D919C915A97009779F30197CB
:1033B0005A969C938E935997892B41F75B968C91E3
:1033C0005B9783FFD3CF5A965C934E935997DECF8A
:1033D00020938B0608958091460581110895E09110
:1033E0008B06F0E0E65DFD4FA081EA2FF0E0E457A8
:1033F000F94FE081F0E0E65DFD4FAA0FAA0FAA0F9A
:103400008081A80FA0934B05A0936005B0E0AA0FA0
:10341000BB1FAB5DB64F8D919C91909388068093B6
:10342000870690939306809392060E943A1B089514
:1034300080914605813009F00895F89480919106B5
:10344000882339F0815080939106882311F0789475
:103450000895809145058823D1F7E0918B06F0E02F
:10346000E65DFD4F808180939006E82FF0E0E45701
:10347000F94FE081F0E0E65DFD4F982F990F990F2D
:10348000990F8081980F90934B0580916005981754
:10349000F1F2E92FF0E0EE0FFF1FEB5DF64F8081B8
:1034A000918190938806809387068091330690914E
:1034B0003406A0913506B09136060196A11DB11DC6
:1034C0008093330690933406A0933506B093360666
:1034D0000E94D11BBCCF6F927F928F929F92AF922E
:1034E000BF92CF92DF92EF92FF920F931F930E94B1
:1034F0003A04109294061092950610929606109235
:103500009706109291061092450510923E06109271
:10351000460510923306109234061092350610922A
:1035200036061092470510924805109249051092F0
:103530004A0510923F0910924009109241091092D9
:1035400042091092370610923806109239061092EE
:103550003A061092240910928B0610928C06109253
:103560008D061092600510924B05109288061092FD
:10357000870610929306109292061092620510929E
:103580006105E5E2F9E01192119229E0EF33F207CB
:10359000D1F78AE897E0FC01749791838083829643
:1035A000E9E082329E07B9F710920F0910920E09D6
:1035B00088E697E090933C0680933B0628E137E04D
:1035C000F901CF010896108295838483FC0187E07E
:1035D000E036F807B1F710821582148230938F0617
:1035E00020938E060E9412060E9437080E94150A38
:1035F00000D0B3E06B2E712CEDB7FEB77282618202
:103600008AEE9BE060E070E047E157E02CE00FEFCE
:103610001FEFA8E9EA2EA6E0FA2EF0E8AF2EB12CB3
:10362000C12CD12C882499240E94270FEDB7FEB716
:103630007282618281E49DE060E070E042E356E0E6
:103640002BE00EEF1FEFE3EBEE2EE5E0FE2E0E94E7
:10365000270F0F900F900E943B041F910F91FF9036
:10366000EF90DF90CF90BF90AF909F908F907F9022
:103670006F9008950E9437040091460503950093CA
:103680004605E0918706F0918806C191CDBFD191A2
:10369000DEBF0F910FBF0F910BBFFF91EF91DF9135
:1036A000CF91BF91AF919F918F917F916F915F91DA
:1036B0004F913F912F911F910F91FF90EF90DF90CD
:1036C000CF90BF90AF909F908F907F906F905F90C2
:1036D0004F903F902F901F900F9008950F921F9240
:1036E0002F923F924F925F926F927F928F929F9212
:1036F000AF92BF92CF92DF92EF92FF920F931F9300
:103700002F933F934F935F936F937F938F939F93E9
:10371000AF93BF93CF93DF93EF93FF930BB70F93C9
:103720000FB70F93E0919206F0919306CDB7C19336
:10373000DEB7D1930E94370400914B0500936005DA
:10374000E0918706F0918806E0939206F093930645
:10375000C191CDBFD191DEBF0F910FBF0F910BBFB4
:10376000FF91EF91DF91CF91BF91AF919F918F9199
:103770007F916F915F914F913F912F911F910F9189
:10378000FF90EF90DF90CF90BF90AF909F908F9081
:103790007F906F905F904F903F902F901F900F9071
:1037A00008950E94370400914B0500936005E09155
:1037B0008706F0918806E0939206F0939306C191F4
:1037C000CDBFD191DEBF0F910FBF0F910BBFFF9106
:1037D000EF91DF91CF91BF91AF919F918F917F91A9
:1037E0006F915F914F913F912F911F910F91FF909A
:1037F000EF90DF90CF90BF90AF909F908F907F9091
:103800006F905F904F903F902F901F900F90089572
:103810000F921F922F923F924F925F926F927F92E0
:103820008F929F92AF92BF92CF92DF92EF92FF92D0
:103830000F931F932F933F934F935F936F937F93B8
:103840008F939F93AF93BF93CF93DF93EF93FF93A8
:103850000BB70F930FB700680F9300919106039574
:1038600000939106013041F4CDB7DEB7E0919206A6
:10387000F0919306C193D19304E602BF78940E941D
:103880008C1900000E94181A0F910FBF0F910BBFE7
:10389000FF91EF91DF91CF91BF91AF919F918F9168
:1038A0007F916F915F914F913F912F911F910F9158
:1038B000FF90EF90DF90CF90BF90AF909F908F9050
:1038C0007F906F905F904F903F902F901F900F9040
:1038D0000895629FD001739FF001829FE00DF11D5A
:1038E000649FE00DF11D929FF00D839FF00D749F7A
:1038F000F00D659FF00D9927729FB00DE11DF91F26
:10390000639FB00DE11DF91FBD01CF011124089582
:1039100097FB092E07260AD077FD04D02ED006D0BB
:1039200000201AF4709561957F4F0895F6F79095F1
:1039300081959F4F0895A1E21A2EAA1BBB1BFD0182
:103940000DC0AA1FBB1FEE1FFF1FA217B307E4077E
:10395000F50720F0A21BB30BE40BF50B661F771FD6
:10396000881F991F1A9469F76095709580959095B6
:103970009B01AC01BD01CF010895AA1BBB1B51E106
:1039800007C0AA1FBB1FA617B70710F0A61BB70BCF
:10399000881F991F5A95A9F780959095BC01CD0174
:1039A0000895AF92BF92CF92DF92EF92FF920F9362
:1039B0001F93CF93DF93EC01A880B980CA80DB808E
:1039C000A114B104C104D10441F484E2A82E89ED0C
:1039D000B82E8BE5C82E87E0D82EC601B5012DE1A3
:1039E00033EF41E050E00E94431D27EA31E440E01C
:1039F00050E00E94691C7B018C01C601B5012DE1DC
:103A000033EF41E050E00E94431DCA01B9012CEEA2
:103A100034EF4FEF5FEF0E94691C6E0D7F1D801F1A
:103A2000911F97FF04C061507040804090486883A8
:103A300079838A839B839B013F77C901DF91CF9173
:103A40001F910F91FF90EF90DF90CF90BF90AF90BC
:103A500008950E94D11C08958AE293E00E94D11C2F
:103A60000895A0E0B0E080932A0390932B03A093E5
:103A70002C03B0932D030895DC0101C06D934150D8
:103A80005040E0F7089597FB092E05260ED057FD0C
:103A900004D051DF0AD0001C38F450954095309581
:103AA00021953F4F4F4F5F4F0895F6F790958095C2
:103AB000709561957F4F8F4F9F4F0895F894FFCF7A
:103AC0000707FFFFFFFF3F065B4F666D7D277F6F98
:103AD000777C395E79718040080001020408010298
:103AE000040810204080A00FB80BD00789006100A7
:103AF000FFFF1100420061008900FFFF61008900A3
:103B0000FFFFFFFFFFFF4200FFFF4200FFFF4200F9
:103B1000FFFF110011001100110011001100110030
:103B2000FFFF1100FFFFFFFF2B00FFFFFFFF110052
:103B3000FFFFFFFF6100FFFFFFFFFFFF4D00FFFFE3
:103B4000FFFFFFFFFFFFFFFFFFFFFFFFFFFFFFFF85
:103B5000FFFF4D00FFFFFFFF6100FFFFFFFF4D0074
:103B6000FFFFFFFF8900FFFFFFFFFFFF7900FFFF5F
:103B7000FFFFFFFFFFFFFFFFFFFFFFFFFFFFFFFF55
:103B8000FFFF7200FFFF7200FFFFFFFF7200FFFFE9
:103B90008900FFFF9600FFFFFFFF7200FFFF890013
:103BA000FFFF8900FFFF6100FFFF7200FFFFFFFFC3
:103BB000FFFFFFFFFFFFFFFFFFFFFFFFFFFFFFFF15
:103BC000FFFF1100FFFF2B00FFFF1100FFFF2B0085
:103BD000FFFF1100FFFF7200FFFF4D00FFFFFFFF1F
:103BE000FFFF0102040810204080000001000200D5
:103BF00001000300010002000100040001000200B6
:103C000001000300010002000100050001000200A4
:103C10000100030001000200010004000100020095
:103C20000100030001000200010006000100020083
:103C30000100030001000200010004000100020075
:103C40000100030001000200010005000100020064
:103C50000100030001000200010004000100020055
:103C60000100030001000200010007000100020042
:103C70000100030001000200010004000100020035
:103C80000100030001000200010005000100020024
:103C90000100030001000200010004000100020015
:103CA0000100030001000200010006000100020003
:103CB00001000300010002000100040001000200F5
:103CC00001000300010002000100050001000200E4
:103CD00001000300010002000100040001000200D5
:0E3CE0000100030001000200010001000000CD
:00000001FF
